:020000040000FA
:0400000036EF00F0E7
:060008007782E0ED03F039
:100018007780D8CF00F1E8CF01F1E0CF02F1D9CF56
:1000280003F1DACF04F19EAA1CEF00F01EEF00F0F6
:100038002AEF00F0ABA223EF00F025EF00F028EF45
:1000480000F0AB980000AB8890EC05F004C1DAFF33
:1000580003C1D9FF02C1E0FF01C1E8FF00C1D8FF19
:0800680077901000C6EF05F0CF
:07060000002564000A000060
:100608000C50D96EDA6ADFCFF6FF060EF76E0800D7
:10061800F550250AD8A413EF03F015EF03F0CEEF39
:1006280003F00C50D96EDA6ADF2A000E536E000E02
:10063800526E52C05EF0546855680C50D96EDA6A32
:10064800DF50106E10C0F6FF060EF76E0800F5506A
:10065800640AD8B432EF03F034EF03F042EF03F04A
:1006680010C0F6FF060EF76E0800F550690AD8A408
:1006780040EF03F042EF03F0C8EF03F00D50D96EDE
:10068800DA6A020EDF26DF5CD96EDA6ADECF11F095
:10069800DECF12F00C50D96EDA6A1028DF6E200E09
:1006A800156E12BE5AEF03F05DEF03F0010E5EEF18
:1006B80003F0000E0F6E15061550800FD96EDA6A1A
:1006C80011C001F012C002F0000E046E0A0E036E93
:1006D800A5EC04F001C007F002C008F082EC06F0B7
:1006E8000750300FDF6E11C001F012C002F0000E8B
:1006F800046E0A0E036E44EC04F001C011F002C04F
:1007080012F011501210D8B48CEF03F08EEF03F0F2
:1007180096EF03F01550D8A494EF03F096EF03F08A
:100728005FEF03F01550D8B49CEF03F09EEF03F091
:10073800BDEF03F00F50D8B4A4EF03F0A6EF03F019
:10074800BDEF03F015061550800FD96EDA6A2D0E2D
:10075800DF6EBDEF03F01550800FD96EDA6ADF50F7
:100768000E6E0E50016E026A0BC003F0FCEC04F032
:10077800152A200E1518D8A4C4EF03F0C6EF03F00D
:10078800AFEF03F0DFEF03F00C50D96EDA6ADF2A1F
:10079800DFEF03F00C50D96EDA6ADFCFF6FF060EF2
:1007A800F76E0800F550016E026A0BC003F0FCEC0E
:1007B80004F0C8EF03F012000600E9CFE8F0EACF32
:1007C800E9F0E1CFEAF0E2CFEBF0D9CFECF0DACF05
:1007D800EDF0F6CFEEF0F7CFEFF0F8CFF0F0F5CF81
:1007E800F1F09EACFAEF03F0FCEF03F02DEF04F00C
:1007F8005A505B10D8A403EF04F005EF04F007EF9C
:1008080004F04AEC06F05A045B10D8A40EEF04F08A
:1008180010EF04F012EF04F0E9EC05F0010E5A1A9B
:100828005A505B10D8A41BEF04F01DEF04F01FEF23
:1008380004F0D4EC06F05A045B10D8A426EF04F0B8
:1008480028EF04F02AEF04F0F4EC06F09E9C00D0A8
:10085800C2829E50F1C0F5FFF0C0F8FFEFC0F7FF6D
:10086800EEC0F6FFEDC0DAFFECC0D9FFEBC0E2FF47
:10087800EAC0E1FFE9C0EAFFE8C0E9FF77921100AA
:10088800066A04BE4CEF04F04AEF04F052EF04F09D
:10089800036C041ED8B0042A010E066E02BE59EF7E
:1008A80004F057EF04F05FEF04F0016C021ED8B0BB
:1008B800022A010E061A000E086E000E076E03507B
:1008C8000410D8B46AEF04F06CEF04F094EF04F06D
:1008D800010E056E74EF04F0D89003360436052A2D
:1008E80004AE79EF04F07BEF04F070EF04F0D890D9
:1008F800073608360350015C04500258D8A087EF29
:1009080004F089EF04F08EEF04F00350015E045008
:10091800025A0780D89004320332052E7BEF04F088
:100928000650D8B49AEF04F09CEF04F0A0EF04F05E
:10093800076C081ED8B0082A07C001F008C002F0EA
:100948001200066A02BEADEF04F0ABEF04F0B3EF9D
:1009580004F0016C021ED8B0022A010E066E04BE15
:10096800BAEF04F0B8EF04F0BEEF04F0036C041E15
:10097800D8B0042A03500410D8B4C5EF04F0C7EF68
:1009880004F0EBEF04F0010E056ECFEF04F0D89001
:1009980003360436052A04AED4EF04F0D6EF04F08B
:1009A800CBEF04F00350015C04500258D8A0DFEFED
:1009B80004F0E1EF04F0E5EF04F00350015E0450A9
:1009C800025AD89004320332052ED6EF04F00650AE
:1009D800D8B4F1EF04F0F3EF04F0F7EF04F0016C92
:1009E800021ED8B0022A01C001F002C002F01200B3
:1009F8000350D8B402EF05F004EF05F00CEF05F052
:100A08000350D8A40AEF05F00CEF05F011EF05F03C
:100A1800015062EC07F050EF05F00350D96EDA6A26
:100A2800090ED926DE50DE10D8B41DEF05F01FEFF1
:100A380005F038EF05F00350D96EDA6A090ED926A9
:100A48000350E16EE26A020EE126DE50E65CE650F3
:100A5800800A086EDE50800A0858D8B036EF05F0D4
:100A680038EF05F050EF05F00350D96EDA6A020E40
:100A7800D926DF50046E0350D96EDA6ADF50042499
:100A8800D96EDA6A01C0DFFF0350D96EDA6A020E46
:100A9800D926DE2A000EDD221200000E076E000E97
:100AA800066E71EF05F006500224046E075003200D
:100AB800056E04C0F6FF05C0F7FFF86A050EF76477
:100AC80003D00800F55005D0F6CFE9FFF7CFEAFFCD
:100AD800EF503CEC07F0064A072A06500224046E41
:100AE80007500320056E04C0F6FF05C0F7FFF86A3B
:100AF800050EF76403D00800F55005D0F6CFE9FFDE
:100B0800F7CFEAFFEF500009D8A48DEF05F08FEF7B
:100B180005F057EF05F01200AECFF3F00001F351E6
:100B28000FEC07F056505710D8A49DEF05F09FEF33
:100B380005F0C5EF05F00A0E0001F319D8B4A7EFC8
:100B480005F0A9EF05F0B2EF05F00D0EF319D8A4E2
:100B5800B0EF05F0B2EF05F0BDEF05F05850D40F37
:100B6800D96EDA6ADF6A000E576E010E566EC5EF4F
:100B780005F05850D40FD96EDA6AF3C0DFFF584A2F
:100B8800592A1200060EF66E0E0EF76E000EF86E5B
:100B980000EE5FF010EE18F00900F5CFEEFFE5501B
:100BA800E150FAE100EE80F0680EEE6AE806FDE139
:100BB80000EE42F01D0EEE6AE806FDE177907792AE
:100BC800000EF86E00010CEF06F0C350C4CF2AF0F7
:100BD8002B6A2AC02BF02A6A2A10406E2B50416ECD
:100BE8002C0E1A6E010E1B6E40C01CF041C01DF089
:100BF80068EC06F02C0E026E036A51EC05F0040E48
:100C0800026E0250D8A4060E036E51EC05F01200D5
:100C180026EC07F051EC07F05A505B10D8A417EFF8
:100C280006F019EF06F01BEF06F0B2EC06F05A04D6
:100C38005B10D8A422EF06F024EF06F026EF06F0AA
:100C4800E5EC06F0C28227EF06F036EF00F017C099
:100C580019F037EF06F016C00BF0190E0C6E18C01D
:100C68000DF004EC03F019C0F6FF060EF76E08004D
:100C7800F5500009D8A443EF06F045EF06F02FEF32
:100C880006F0000E176E000E166E1200C350C4CF89
:100C98002AF02B6A2AC02BF02A6A2A10406E2B50A1
:100CA800416E2C0E1A6E010E1B6E40C01CF041C026
:100CB8001DF068EC06F02C0E026E036A51EC05F08C
:100CC8002C0E3CEC07F012001C0E1E6E1AC01FF012
:100CD800000E226E000E216E000E296E000E286E88
:100CE8001F0E166E1BC017F01E0E186E2BEC06F0AA
:100CF8001A502124D96EDA6ADF6A120008BE87EF1B
:100D080006F089EF06F08FEF06F007C007F008C07D
:100D180008F09BEF06F007C009F008C00AF0091EAA
:100D28000A1E094A0A2A09C007F00AC008F0120078
:100D38009280C198C19AC150F00B0E09C16EC30EC2
:100D4800C216F80EC016C050C70B0809C06EC28084
:100D5800C08E9D8C9E9CC46AC36A12001BEC07F06F
:100D680092849296929889968988C150F00B0C09C2
:100D7800C16EC250C30B0809C26E00001200948CE9
:100D8800948EAC98B896AC940C0EAF6EAB8E9E98C1
:100D98009E8AAC8AAB889D989F989D8A9F9A1200DC
:100DA80031EC07F092849296929889968988C1507E
:100DB800F00B0C09C16EC250C30B0809C26E0000CB
:100DC80012001BEC07F09280929292948994898287
:100DD800C150F00B0E09C16EC30EC21600001200FE
:100DE80031EC07F092809292929489948982C15052
:100DF800F00B0E09C16EC30EC216000012000000EF
:100E0800403F62BE3C38CDCC4C3F0000403F62BE04
:100E18003C38CDCC4C3F0001F26FACA216EF07F086
:100E280018EF07F011EF07F0F2C0ADFF1200928043
:100E380092829284928692888990899289948996DE
:100E4800899812005AEC07F047EC07F05EEC07F0BF
:100E5800C3EC06F09CEC06F0120092809282928419
:100E680092869288899089928994899689981200A5
:100E7800016EACA242EF07F044EF07F03DEF07F038
:100E880001C0ADFF12009E929D829F82780ECA1209
:100E9800030ECA12CA84CB68120093969394939255
:100EA80093908A968A948A928A901200D38CD39AC5
:0E0EB800D3981200D08EF28EF28C120012002F
:020000040020DA
:08000000FFFFFFFFFFFFFFFF00
:020000040030CA
:0E000000FF881F00FF8381FF0FC00FE00F403D
:00000001FF
